:100000000C945F000C9487000C9487000C9487007C
:100010000C9487000C9487000C9487000C94870044
:100020000C9487000C9487000C9487000C94870034
:100030000C9487000C9487000C9487000C94870024
:100040000C94DC000C9487000C9442020C94850202
:100050000C9487000C9487000C9487000C94870004
:100060000C9487000C948700000000070002010038
:100070000003040600000000000000000102040864
:100080001020408001020408102001020408102002
:10009000040404040404040402020202020203032E
:1000A0000303030300000000250028002B000000CC
:1000B0000000240027002A00C8004103D4001124B6
:1000C0001FBECFEFD8E0DEBFCDBF11E0A0E0B1E0B2
:1000D000E4EDF2E102C005900D92AE38B107D9F718
:1000E00013E0AEE8B1E001C01D92AE30B107E1F718
:1000F00010E0CCEBD0E004C02297FE010E94590929
:10010000C83BD107C9F70E9497030C94EB080C94E5
:100110000000CF93DF9300D0CDB7DEB740E05BE4C3
:1001200060E070E080E692E00E94C0028FE492E01E
:100130009A838983BE016F5F7F4F8EE891E00E94B2
:10014000A70566E071E080E692E00E9401040F904E
:100150000F90DF91CF9108958EE891E00E94D6052F
:1001600061E070E08FE492E00E944C0568EE73E07D
:1001700080E090E00E94490160E070E08FE492E04E
:100180000E944C0568EE73E080E090E00C94490119
:100190004DE050E066E171E08FE492E00E94590585
:1001A0008EE891E00C9478058EE891E00E948C0531
:1001B0008FE492E00C943B051F920F920FB60F92C2
:1001C00011242F933F938F939F93AF93BF9380916D
:1001D000580290915902A0915A02B0915B0230915D
:1001E000570223E0230F2D3720F40196A11DB11DE6
:1001F00005C026E8230F0296A11DB11D20935702CA
:100200008093580290935902A0935A02B0935B02D4
:1002100080915C0290915D02A0915E02B0915F02BC
:100220000196A11DB11D80935C0290935D02A09385
:100230005E02B0935F02BF91AF919F918F913F910A
:100240002F910F900FBE0F901F9018953FB7F89405
:1002500080915C0290915D02A0915E02B0915F027C
:1002600026B5A89B05C02F3F19F00196A11DB11D11
:100270003FBF6627782F892F9A2F620F711D811D2E
:10028000911D42E0660F771F881F991F4A95D1F78D
:100290000895CF92DF92EF92FF92CF93DF936B019D
:1002A0007C010E942601EB01C114D104E104F10498
:1002B00079F00E9426016C1B7D0B683E7340A0F311
:1002C00081E0C81AD108E108F108C851DC4FECCF31
:1002D000DF91CF91FF90EF90DF90CF9008957894C9
:1002E00084B5826084BD84B5816084BD85B582603B
:1002F00085BD85B5816085BDEEE6F0E080818160D9
:100300008083E1E8F0E010828081826080838081D8
:1003100081608083E0E8F0E0808181608083E1EBB0
:10032000F0E0808184608083E0EBF0E08081816098
:100330008083EAE7F0E0808184608083808182604E
:100340008083808181608083808180688083109237
:10035000C1000895FC0124853585F901E05CFF4F5B
:1003600080819181F901EE5BFF4F20813181821BF9
:10037000930B8F7399270895FC0184859585FC0163
:10038000E05CFF4F40815181FC01EE5BFF4F20811B
:1003900031814217530741F00190F081E02DE80FC1
:1003A000F91F808190E008958FEF9FEF0895FC0181
:1003B00084859585FC01E05CFF4F40815181FC0103
:1003C000EE5BFF4F208131814217530779F0A08106
:1003D000B181A80FB91F8C91208131812F5F3F4FD0
:1003E0002F7333273183208390E008958FEF9FEFA1
:1003F0000895FC0181A1882329F0A489B5898C91F5
:1004000086FFFBCF11A20895CF93DF93FC012685D1
:100410003785D901A05CBF4F8D919C9111970196B2
:100420008F739927E901CE5BDF4F4881598184178B
:100430009507D9F30D90BC91A02DA20FB31F6C931B
:10044000A685B785A05CBF4F11969C938E93A68915
:10045000B7892C9181E090E0078C02C0880F991F2A
:100460000A94E2F7282B2C9381E081A30488F58974
:10047000E02D80818064808381E090E0DF91CF91E6
:10048000089508951F920F920FB60F9211242F9383
:100490003F934F938F939F93EF93FF938091C0006F
:1004A00082FD1CC04091C600809106039091070315
:1004B00001968F73992720910803309109038217C1
:1004C000930771F0E0910603F0910703EA53FD4FA3
:1004D0004083909307038093060302C08091C60077
:1004E000FF91EF919F918F914F913F912F910F909D
:1004F0000FBE0F901F90189580E692E00E94AA010F
:10050000892B11F00C94410208951F920F920FB69F
:100510000F9211242F933F938F939F93EF93FF9309
:100520002091C2023091C3028091C4029091C50211
:100530002817390731F48091C1008F7D8093C10065
:1005400014C0E091C402F091C502EE57FD4F208126
:100550008091C4029091C50201968F739927909360
:10056000C5028093C4022093C600FF91EF919F9132
:100570008F913F912F910F900FBE0F901F90189564
:10058000CF92DF92EF92FF92CF93DF93EC016A015B
:100590007B01411581EE580761057105F9F0EC8981
:1005A000FD8981E090E008A002C0880F991F0A949D
:1005B000E2F7808360E079E08DE390E0A7019601A7
:1005C0000E94FE082150310941095109569547956D
:1005D00037952795211580E1380798F0EC89FD893A
:1005E000108260E874E88EE190E0A70196010E9415
:1005F000FE08215031094109510956954795379513
:100600002795E889F9893083EA89FB89208319A233
:10061000EE89FF89408181E090E09C010C8C02C052
:10062000220F331F0A94E2F7422B4083EE89FF89A1
:1006300040819C010D8C02C0220F331F0A94E2F707
:10064000422B4083EE89FF8940819C010E8C02C0C1
:10065000220F331F0A94E2F7422B4083EE89FF8971
:1006600020810F8C02C0880F991F0A94E2F78095B1
:1006700082238083DF91CF91FF90EF90DF90CF9026
:100680000895109263021092620288EE93E0A0E057
:10069000B0E08093640290936502A0936602B093E9
:1006A000670285E291E0909361028093600286EC9C
:1006B00092E090936D0280936C0282E892E09093B6
:1006C0006F0280936E0285EC90E0909371028093AC
:1006D000700284EC90E0909373028093720280EC3D
:1006E00090E0909375028093740281EC90E0909377
:1006F00077028093760282EC90E090937902809367
:10070000780286EC90E090937B0280937A0284E0FA
:1007100080937C0283E080937D0287E080937E0259
:1007200085E080937F0281E08093800208950E949B
:100730006F010E948900CCE7D2E00E94AC002097B4
:10074000E1F30E947C02F9CF0C949207CF92DF92E2
:10075000EF92FF920F931F93CF93DF936C017A0177
:10076000EB01E60EF71E00E010E0CE15DF0561F0AC
:100770006991D601ED91FC910190F081E02DC601C7
:100780000995080F191FF1CFC801DF91CF911F9173
:100790000F91FF90EF90DF90CF9008956115710554
:1007A00081F0DB010D900020E9F7AD0141505109C6
:1007B000461B570BDC01ED91FC910280F381E02D8B
:1007C000099480E090E008950C94CE03DC01ED9153
:1007D000FC910190F081E02D09940F931F93CF932A
:1007E000DF93EC016DE00E94E6038C016AE0CE012C
:1007F0000E94E603800F911FDF91CF911F910F910F
:1008000008950F931F93CF93DF93EC010E94CE03C3
:100810008C01CE010E94ED03800F911FDF91CF91DB
:100820001F910F9108958F929F92AF92BF92CF9296
:10083000DF92EF92FF920F931F93CF93DF93CDB789
:10084000DEB7A1970FB6F894DEBF0FBECDBF7C0117
:10085000C42EE52FCB01D22E19A221E02D1510F0C8
:100860002AE0D22E8E010F5D1F4F8D2C912CA12CD2
:10087000B12C6C2D7E2FA50194010E94FE088C2DB9
:10088000D29E80191124015011098A3014F4805D20
:1008900001C0895CF80180832115310541055105AE
:1008A00021F0C22EE32FCA01E4CFB801C7010E9494
:1008B000CE03A1960FB6F894DEBF0FBECDBFDF9179
:1008C000CF911F910F91FF90EF90DF90CF90BF904D
:1008D000AF909F908F900895CF92DF92EF92FF920A
:1008E0000F931F93CF93DF93EC016A017B012115D6
:1008F000310579F4E881F9810190F081E02D642FD0
:10090000DF91CF911F910F91FF90EF90DF90CF90EB
:1009100009942A303105E9F477FF1AC06DE20E948C
:10092000E6038C0144275527BA014C195D096E096D
:100930007F092AE0CE010E941304800F911FDF91EE
:10094000CF911F910F91FF90EF90DF90CF9008957E
:100950002AE0B701A601CE01DF91CF911F910F913F
:10096000FF90EF90DF90CF900C941304FC018081F6
:1009700091810C949207CF93DF93EC018881998148
:10098000009711F00E949207198218821D821C8222
:100990001B821A82DF91CF9108950F931F93CF93FB
:1009A000DF93EC018B016F5F7F4F888199810E94FB
:1009B0002108009731F0998388831B830A8381E0A3
:1009C00001C080E0DF91CF911F910F910895CF93E7
:1009D000DF93EC0188819981892B29F08A819B81A1
:1009E0008617970760F4CE010E94CD04882341F05A
:1009F0008C819D81892B19F4E881F981108281E035
:100A0000DF91CF910895EF92FF920F931F93CF93B1
:100A1000DF93EC017B018A01BA010E94E704811196
:100A200004C0CE010E94BB0407C01D830C83B70124
:100A3000888199810E94F708CE01DF91CF911F91A3
:100A40000F91FF90EF900895FC01118210821382A4
:100A500012821582148216826115710559F0FB010C
:100A600001900020E9F7AF0141505109461B570B97
:100A70000C940305089525E331E0FC0131832083C4
:100A80000C94CD06CF93DF93EC010E943B05CE0181
:100A9000DF91CF910C94A4036130710511F461E0F2
:100AA00003C0672B29F460E0FC0186810C94970653
:100AB00008950F931F93CF93DF9300D0CDB7DEB788
:100AC0008C0149835A830E94E50625E331E0F80151
:100AD00031832083498146835A81578361E0842F83
:100AE0000F900F90DF91CF911F910F910C945E06A4
:100AF000CF93DF93EC016CE671E08B549F4F0E9423
:100B00002405FE01E454FF4F1082C354DF4F1982C5
:100B10001882DF91CF910895CF93DF93EC01FC0110
:100B2000E154FF4F0190F081E02D80819181009789
:100B300039F0DC01ED91FC910280F381E02D099503
:100B4000CE018B549F4FDF91CF910C94B604CF937D
:100B5000DF93EC01C154DF4F798368836FE371E069
:100B600080E692E00E94010468E671E080E692E08F
:100B70000E94E4032AE030E040E050E0BA0180E661
:100B800092E00E946C046DE671E080E692E00E94C3
:100B9000E403E881F981808191810E94F606BC011D
:100BA00080E692E0DF91CF910C940104DF92EF9206
:100BB000FF920F931F93CF93DF938C0184549F4F29
:100BC0007C01E801C354DF4FDD24D39480E692E03A
:100BD0000E94AA011816190674F580E692E00E9498
:100BE000D7018E3321F419821882F701D082F701E0
:100BF0009081992359F328813981243B310519F4D7
:100C00001982188218C08B3351F4F801E20FF31FD8
:100C10001082F70110821982188281E01EC08E3383
:100C2000A9F2A9014F5F5F4F59834883F801E20F92
:100C3000F31F8083CBCF60E771E080E692E00E94F3
:100C40000104B80180E692E00E9401046CE671E0C4
:100C500080E692E00E94010480E0DF91CF911F9135
:100C60000F91FF90EF90DF900895833081F028F48A
:100C7000813099F08230A1F008958630A9F0873054
:100C8000B9F08430D1F4809180008F7D03C08091D1
:100C900080008F7780938000089584B58F7702C09D
:100CA00084B58F7D84BD08958091B0008F7703C097
:100CB0008091B0008F7D8093B0000895CF93DF9333
:100CC00090E0FC01E458FF4F2491FC01E057FF4FF6
:100CD0008491882349F190E0880F991FFC01E25527
:100CE000FF4FA591B4918C559F4FFC01C591D491B4
:100CF0009FB7611108C0F8948C91209582238C9342
:100D0000888182230AC0623051F4F8948C91322F8A
:100D1000309583238C938881822B888304C0F89438
:100D20008C91822B8C939FBFDF91CF9108950F936D
:100D30001F93CF93DF931F92CDB7DEB7282F30E0FC
:100D4000F901E859FF4F8491F901E458FF4F1491DC
:100D5000F901E057FF4F04910023C9F0882321F0E7
:100D600069830E9435066981E02FF0E0EE0FFF1FD6
:100D7000EC55FF4FA591B4919FB7F8948C916111F8
:100D800003C01095812301C0812B8C939FBF0F90CE
:100D9000DF91CF911F910F91089524E831E0FC017C
:100DA000318320830895FC01758364830895FC01D9
:100DB00084819581089580E090E0089524E831E0F1
:100DC000FC01318320830C94A403FC0184E891E0AE
:100DD00091838083738362831582148240E05BE495
:100DE00060E070E080E692E00C94C002FC01828139
:100DF00093810895CF93DF938230910510F482E0C0
:100E000090E0E0910C03F0910D0320E030E0A0E0D1
:100E1000B0E0309739F14081518148175907B8F057
:100E20004817590771F482819381109729F013961E
:100E30009C938E9312972CC090930D0380930C0378
:100E400027C02115310531F04217530718F0A901C9
:100E5000DB0101C0EF019A01BD01DF010280F381D6
:100E6000E02DD7CF21153105F9F0281B390B24309F
:100E7000310580F48A819B816115710521F0FB01A8
:100E80009383828304C090930D0380930C03FE012F
:100E9000329644C0FE01E20FF31F819391932250DA
:100EA0003109398328833AC020910A0330910B031A
:100EB000232B41F4209102013091030130930B0365
:100EC00020930A0320910001309101012115310581
:100ED00041F42DB73EB74091040150910501241B08
:100EE000350BE0910A03F0910B03E217F307A0F42E
:100EF0002E1B3F0B2817390778F0AC014E5F5F4F70
:100F00002417350748F04E0F5F1F50930B03409393
:100F10000A038193919302C0E0E0F0E0CF01DF91FA
:100F2000CF910895CF93DF93009709F487C0FC0118
:100F3000329713821282C0910C03D0910D03209737
:100F400081F420813181280F391F80910A0390910B
:100F50000B038217930779F5F0930B03E0930A03D1
:100F60006DC0DE0120E030E0AE17BF0750F41296EE
:100F70004D915C9113979D014115510509F1DA01DD
:100F8000F3CFB383A28340815181840F951F8A17C9
:100F90009B0771F48D919C911197840F951F029678
:100FA0009183808312968D919C9113979383828372
:100FB0002115310529F4F0930D03E0930C033EC095
:100FC000D9011396FC93EE9312974D915D91A40F66
:100FD000B51FEA17FB0779F480819181840F951F73
:100FE0000296D90111969C938E93828193811396D8
:100FF0009C938E931297E0E0F0E08A819B810097AA
:1010000019F0FE01EC01F9CFCE0102962881398159
:10101000820F931F20910A0330910B032817390781
:1010200069F4309729F410920D0310920C0302C05A
:1010300013821282D0930B03C0930A03DF91CF91E6
:101040000895A0E0B0E0E7E2F8E00C942409EC0198
:10105000CB01209719F40E94FA06B8C0FE01E60FF2
:10106000F71F9E0122503109E217F30708F4ACC0C4
:10107000D9010D911C91119706171707B8F005308B
:10108000110508F49FC0A80144505109461757079D
:1010900008F498C002501109061B170B0193119315
:1010A0006D937C93CF010E9492078CC05B01A01AC4
:1010B000B10A4E01800E911EA0910C03B0910D0358
:1010C000612C712C60E070E0109709F449C0A815FC
:1010D000B905C9F5ED90FC901197670142E0C40E87
:1010E000D11CCA14DB0478F147018A189B086401FB
:1010F00042E0C40ED11C1296BC9012971396AC918C
:10110000B5E0CB16D10440F0B282A38391828082F5
:10111000D9018D939C9309C00E5F1F4F0E0D1F1DAB
:10112000F90111830083EB2DFA2F6115710531F060
:10113000DB011396FC93EE93129744C0F0930D03DA
:10114000E0930C033FC06D917C9111976616770672
:1011500008F43B01BD0112960D90BC91A02DB4CFB7
:1011600060910A0370910B0368157905E9F468161C
:101170007906D0F4409100015091010141155105CB
:1011800041F44DB75EB76091040170910501461BB3
:10119000570BE417F507C0F4F0930B03E0930A0331
:1011A000F901918380830EC00E94FA067C010097AA
:1011B00059F0A801BE010E94EE08CE010E949207DC
:1011C000C70104C0CE0102C080E090E0CDB7DEB719
:1011D000EEE00C944009F8940C945D09FB01DC01ED
:1011E00002C001900D9241505040D8F70895FB0184
:1011F000DC0101900D920020E1F70895A1E21A2E82
:10120000AA1BBB1BFD010DC0AA1FBB1FEE1FFF1FAA
:10121000A217B307E407F50720F0A21BB30BE40BFA
:10122000F50B661F771F881F991F1A9469F7609541
:101230007095809590959B01AC01BD01CF010895FB
:101240002F923F924F925F926F927F928F929F92D6
:10125000AF92BF92CF92DF92EF92FF920F931F93C4
:10126000CF93DF93CDB7DEB7CA1BDB0B0FB6F89475
:10127000DEBF0FBECDBF09942A88398848885F84B5
:101280006E847D848C849B84AA84B984C884DF8026
:10129000EE80FD800C811B81AA81B981CE0FD11D0A
:1012A0000FB6F894DEBF0FBECDBFED010895EE0F6F
:1012B000FF1F0590F491E02D099410E0CCEBD0E0F5
:1012C00004C0FE010E9459092296CE3BD107C9F7FE
:0412D000F894FFCFC0
:1012D40000000E03200046696E697368656420731C
:1012E4006574207570006275696C74496E4C454470
:1012F40000000000000402A603AA01D701BC01F902
:1013040001000000003B0542054C05D706DB0649F9
:101314006E697469616C6973656420636F6D6D7562
:101324006E69636174696F6E732077697468206D88
:101334006F64756C65733A0020202020003A200009
:1013440043757272656E74206275666665723A00E2
:0E13540000000000CD06DE06D306D706DB063D
:00000001FF
